{
  "_format": "hh-sol-artifact-1",
  "contractName": "ProtectedTransferV2",
  "sourceName": "contracts/transfers/ProtectedTransferV2.sol",
  "abi": [
    {
      "inputs": [
        {
          "internalType": "address",
          "name": "_feeCollector",
          "type": "address"
        },
        {
          "internalType": "uint16",
          "name": "_feeInBasisPoints",
          "type": "uint16"
        }
      ],
      "stateMutability": "nonpayable",
      "type": "constructor"
    },
    {
      "inputs": [],
      "name": "InvalidAmount",
      "type": "error"
    },
    {
      "inputs": [],
      "name": "InvalidClaimCode",
      "type": "error"
    },
    {
      "inputs": [],
      "name": "InvalidExpiryTime",
      "type": "error"
    },
    {
      "inputs": [],
      "name": "InvalidTokenAddress",
      "type": "error"
    },
    {
      "inputs": [],
      "name": "NotIntendedRecipient",
      "type": "error"
    },
    {
      "inputs": [],
      "name": "NotLinkTransfer",
      "type": "error"
    },
    {
      "inputs": [],
      "name": "NotTransferSender",
      "type": "error"
    },
    {
      "inputs": [
        {
          "internalType": "address",
          "name": "owner",
          "type": "address"
        }
      ],
      "name": "OwnableInvalidOwner",
      "type": "error"
    },
    {
      "inputs": [
        {
          "internalType": "address",
          "name": "account",
          "type": "address"
        }
      ],
      "name": "OwnableUnauthorizedAccount",
      "type": "error"
    },
    {
      "inputs": [],
      "name": "PasswordProtected",
      "type": "error"
    },
    {
      "inputs": [],
      "name": "ReentrancyGuardReentrantCall",
      "type": "error"
    },
    {
      "inputs": [
        {
          "internalType": "address",
          "name": "token",
          "type": "address"
        }
      ],
      "name": "SafeERC20FailedOperation",
      "type": "error"
    },
    {
      "inputs": [],
      "name": "TokenNotSupported",
      "type": "error"
    },
    {
      "inputs": [],
      "name": "TransferAlreadyExists",
      "type": "error"
    },
    {
      "inputs": [],
      "name": "TransferDoesNotExist",
      "type": "error"
    },
    {
      "inputs": [],
      "name": "TransferExpired",
      "type": "error"
    },
    {
      "inputs": [],
      "name": "TransferNotClaimable",
      "type": "error"
    },
    {
      "inputs": [],
      "name": "TransferNotExpired",
      "type": "error"
    },
    {
      "inputs": [],
      "name": "TransferNotRefundable",
      "type": "error"
    },
    {
      "inputs": [],
      "name": "ZeroFeeCollector",
      "type": "error"
    },
    {
      "anonymous": false,
      "inputs": [
        {
          "indexed": true,
          "internalType": "address",
          "name": "feeCollector",
          "type": "address"
        }
      ],
      "name": "FeeCollectorUpdated",
      "type": "event"
    },
    {
      "anonymous": false,
      "inputs": [
        {
          "indexed": false,
          "internalType": "uint16",
          "name": "feeInBasisPoints",
          "type": "uint16"
        }
      ],
      "name": "FeeUpdated",
      "type": "event"
    },
    {
      "anonymous": false,
      "inputs": [
        {
          "indexed": true,
          "internalType": "address",
          "name": "previousOwner",
          "type": "address"
        },
        {
          "indexed": true,
          "internalType": "address",
          "name": "newOwner",
          "type": "address"
        }
      ],
      "name": "OwnershipTransferred",
      "type": "event"
    },
    {
      "anonymous": false,
      "inputs": [
        {
          "indexed": true,
          "internalType": "address",
          "name": "tokenAddress",
          "type": "address"
        },
        {
          "indexed": false,
          "internalType": "bool",
          "name": "isSupported",
          "type": "bool"
        }
      ],
      "name": "TokenSupportUpdated",
      "type": "event"
    },
    {
      "anonymous": false,
      "inputs": [
        {
          "indexed": true,
          "internalType": "bytes32",
          "name": "transferId",
          "type": "bytes32"
        },
        {
          "indexed": true,
          "internalType": "address",
          "name": "recipient",
          "type": "address"
        }
      ],
      "name": "TransferAssociatedWithRecipient",
      "type": "event"
    },
    {
      "anonymous": false,
      "inputs": [
        {
          "indexed": true,
          "internalType": "bytes32",
          "name": "transferId",
          "type": "bytes32"
        },
        {
          "indexed": true,
          "internalType": "address",
          "name": "claimer",
          "type": "address"
        },
        {
          "indexed": false,
          "internalType": "uint256",
          "name": "amount",
          "type": "uint256"
        }
      ],
      "name": "TransferClaimed",
      "type": "event"
    },
    {
      "anonymous": false,
      "inputs": [
        {
          "indexed": true,
          "internalType": "bytes32",
          "name": "transferId",
          "type": "bytes32"
        },
        {
          "indexed": true,
          "internalType": "address",
          "name": "sender",
          "type": "address"
        },
        {
          "indexed": true,
          "internalType": "address",
          "name": "recipient",
          "type": "address"
        },
        {
          "indexed": false,
          "internalType": "address",
          "name": "tokenAddress",
          "type": "address"
        },
        {
          "indexed": false,
          "internalType": "uint256",
          "name": "amount",
          "type": "uint256"
        },
        {
          "indexed": false,
          "internalType": "uint256",
          "name": "grossAmount",
          "type": "uint256"
        },
        {
          "indexed": false,
          "internalType": "uint256",
          "name": "expiry",
          "type": "uint256"
        }
      ],
      "name": "TransferCreated",
      "type": "event"
    },
    {
      "anonymous": false,
      "inputs": [
        {
          "indexed": true,
          "internalType": "bytes32",
          "name": "transferId",
          "type": "bytes32"
        },
        {
          "indexed": true,
          "internalType": "address",
          "name": "sender",
          "type": "address"
        },
        {
          "indexed": false,
          "internalType": "uint256",
          "name": "amount",
          "type": "uint256"
        }
      ],
      "name": "TransferRefunded",
      "type": "event"
    },
    {
      "inputs": [],
      "name": "DEFAULT_EXPIRY_TIME",
      "outputs": [
        {
          "internalType": "uint256",
          "name": "",
          "type": "uint256"
        }
      ],
      "stateMutability": "view",
      "type": "function"
    },
    {
      "inputs": [],
      "name": "MAX_EXPIRY_TIME",
      "outputs": [
        {
          "internalType": "uint256",
          "name": "",
          "type": "uint256"
        }
      ],
      "stateMutability": "view",
      "type": "function"
    },
    {
      "inputs": [],
      "name": "MIN_EXPIRY_TIME",
      "outputs": [
        {
          "internalType": "uint256",
          "name": "",
          "type": "uint256"
        }
      ],
      "stateMutability": "view",
      "type": "function"
    },
    {
      "inputs": [
        {
          "internalType": "bytes32",
          "name": "transferId",
          "type": "bytes32"
        },
        {
          "internalType": "string",
          "name": "claimCode",
          "type": "string"
        }
      ],
      "name": "claimTransfer",
      "outputs": [],
      "stateMutability": "nonpayable",
      "type": "function"
    },
    {
      "inputs": [
        {
          "internalType": "address",
          "name": "recipient",
          "type": "address"
        },
        {
          "internalType": "address",
          "name": "tokenAddress",
          "type": "address"
        },
        {
          "internalType": "uint256",
          "name": "amount",
          "type": "uint256"
        },
        {
          "internalType": "uint256",
          "name": "expiry",
          "type": "uint256"
        },
        {
          "internalType": "bool",
          "name": "hasPassword",
          "type": "bool"
        },
        {
          "internalType": "bytes32",
          "name": "claimCodeHash",
          "type": "bytes32"
        }
      ],
      "name": "createDirectTransfer",
      "outputs": [
        {
          "internalType": "bytes32",
          "name": "",
          "type": "bytes32"
        }
      ],
      "stateMutability": "nonpayable",
      "type": "function"
    },
    {
      "inputs": [
        {
          "internalType": "address",
          "name": "tokenAddress",
          "type": "address"
        },
        {
          "internalType": "uint256",
          "name": "amount",
          "type": "uint256"
        },
        {
          "internalType": "uint256",
          "name": "expiry",
          "type": "uint256"
        },
        {
          "internalType": "bool",
          "name": "hasPassword",
          "type": "bool"
        },
        {
          "internalType": "bytes32",
          "name": "claimCodeHash",
          "type": "bytes32"
        }
      ],
      "name": "createLinkTransfer",
      "outputs": [
        {
          "internalType": "bytes32",
          "name": "",
          "type": "bytes32"
        }
      ],
      "stateMutability": "nonpayable",
      "type": "function"
    },
    {
      "inputs": [],
      "name": "feeCollector",
      "outputs": [
        {
          "internalType": "address",
          "name": "",
          "type": "address"
        }
      ],
      "stateMutability": "view",
      "type": "function"
    },
    {
      "inputs": [],
      "name": "feeInBasisPoints",
      "outputs": [
        {
          "internalType": "uint16",
          "name": "",
          "type": "uint16"
        }
      ],
      "stateMutability": "view",
      "type": "function"
    },
    {
      "inputs": [
        {
          "internalType": "address",
          "name": "recipient",
          "type": "address"
        }
      ],
      "name": "getRecipientTransfers",
      "outputs": [
        {
          "internalType": "bytes32[]",
          "name": "",
          "type": "bytes32[]"
        }
      ],
      "stateMutability": "view",
      "type": "function"
    },
    {
      "inputs": [
        {
          "internalType": "bytes32",
          "name": "transferId",
          "type": "bytes32"
        }
      ],
      "name": "getTransfer",
      "outputs": [
        {
          "internalType": "address",
          "name": "sender",
          "type": "address"
        },
        {
          "internalType": "address",
          "name": "recipient",
          "type": "address"
        },
        {
          "internalType": "address",
          "name": "tokenAddress",
          "type": "address"
        },
        {
          "internalType": "uint256",
          "name": "amount",
          "type": "uint256"
        },
        {
          "internalType": "uint256",
          "name": "grossAmount",
          "type": "uint256"
        },
        {
          "internalType": "uint256",
          "name": "expiry",
          "type": "uint256"
        },
        {
          "internalType": "uint8",
          "name": "status",
          "type": "uint8"
        },
        {
          "internalType": "uint256",
          "name": "createdAt",
          "type": "uint256"
        },
        {
          "internalType": "bool",
          "name": "isLinkTransfer",
          "type": "bool"
        },
        {
          "internalType": "bool",
          "name": "hasPassword",
          "type": "bool"
        }
      ],
      "stateMutability": "view",
      "type": "function"
    },
    {
      "inputs": [
        {
          "internalType": "bytes32",
          "name": "transferId",
          "type": "bytes32"
        }
      ],
      "name": "isPasswordProtected",
      "outputs": [
        {
          "internalType": "uint8",
          "name": "",
          "type": "uint8"
        }
      ],
      "stateMutability": "view",
      "type": "function"
    },
    {
      "inputs": [
        {
          "internalType": "bytes32",
          "name": "transferId",
          "type": "bytes32"
        }
      ],
      "name": "isTransferClaimable",
      "outputs": [
        {
          "internalType": "bool",
          "name": "",
          "type": "bool"
        }
      ],
      "stateMutability": "view",
      "type": "function"
    },
    {
      "inputs": [],
      "name": "owner",
      "outputs": [
        {
          "internalType": "address",
          "name": "",
          "type": "address"
        }
      ],
      "stateMutability": "view",
      "type": "function"
    },
    {
      "inputs": [
        {
          "internalType": "bytes32",
          "name": "transferId",
          "type": "bytes32"
        }
      ],
      "name": "refundTransfer",
      "outputs": [],
      "stateMutability": "nonpayable",
      "type": "function"
    },
    {
      "inputs": [],
      "name": "renounceOwnership",
      "outputs": [],
      "stateMutability": "nonpayable",
      "type": "function"
    },
    {
      "inputs": [
        {
          "internalType": "uint16",
          "name": "newFeeInBasisPoints",
          "type": "uint16"
        }
      ],
      "name": "setFee",
      "outputs": [],
      "stateMutability": "nonpayable",
      "type": "function"
    },
    {
      "inputs": [
        {
          "internalType": "address",
          "name": "newFeeCollector",
          "type": "address"
        }
      ],
      "name": "setFeeCollector",
      "outputs": [],
      "stateMutability": "nonpayable",
      "type": "function"
    },
    {
      "inputs": [
        {
          "internalType": "address",
          "name": "tokenAddress",
          "type": "address"
        },
        {
          "internalType": "bool",
          "name": "isSupported",
          "type": "bool"
        }
      ],
      "name": "setTokenSupport",
      "outputs": [],
      "stateMutability": "nonpayable",
      "type": "function"
    },
    {
      "inputs": [
        {
          "internalType": "address",
          "name": "",
          "type": "address"
        }
      ],
      "name": "supportedTokens",
      "outputs": [
        {
          "internalType": "bool",
          "name": "",
          "type": "bool"
        }
      ],
      "stateMutability": "view",
      "type": "function"
    },
    {
      "inputs": [
        {
          "internalType": "address",
          "name": "newOwner",
          "type": "address"
        }
      ],
      "name": "transferOwnership",
      "outputs": [],
      "stateMutability": "nonpayable",
      "type": "function"
    },
    {
      "inputs": [
        {
          "internalType": "bytes32",
          "name": "",
          "type": "bytes32"
        }
      ],
      "name": "transfers",
      "outputs": [
        {
          "internalType": "address",
          "name": "sender",
          "type": "address"
        },
        {
          "internalType": "address",
          "name": "recipient",
          "type": "address"
        },
        {
          "internalType": "address",
          "name": "tokenAddress",
          "type": "address"
        },
        {
          "internalType": "uint256",
          "name": "amount",
          "type": "uint256"
        },
        {
          "internalType": "uint256",
          "name": "grossAmount",
          "type": "uint256"
        },
        {
          "internalType": "uint256",
          "name": "expiry",
          "type": "uint256"
        },
        {
          "internalType": "bytes32",
          "name": "claimCodeHash",
          "type": "bytes32"
        },
        {
          "internalType": "enum ProtectedTransferV2.TransferStatus",
          "name": "status",
          "type": "uint8"
        },
        {
          "internalType": "uint256",
          "name": "createdAt",
          "type": "uint256"
        },
        {
          "internalType": "bool",
          "name": "isLinkTransfer",
          "type": "bool"
        },
        {
          "internalType": "bool",
          "name": "hasPassword",
          "type": "bool"
        }
      ],
      "stateMutability": "view",
      "type": "function"
    }
  ],
  "bytecode": "0x60803461010957601f6116af38819003918201601f19168301916001600160401b0383118484101761010e5780849260409485528339810103126101095780516001600160a01b03918282169182900361010957602001519161ffff8316830361010957600160005533156100f05760018054336001600160a01b03198216811790925560405192167f8be0079c531659141344cd1fd0a4f28419497f9722a3daafe3b4186f6b6457e0600080a381156100e157506004549161ffff60a01b9060a01b169160018060b01b031916171760045560405161158a90816101258239f35b635fb3e86760e11b8152600490fd5b604051631e4fbdf760e01b815260006004820152602490fd5b600080fd5b634e487b7160e01b600052604160045260246000fdfe6080806040526004908136101561001557600080fd5b60003560e01c908163042334561461123c575080630c6a753f1461119d5780630c8a247214610ce9578063260958a514610c2c5780633b627cb714610bc85780633c64f04b14610af357806359d3deb9146106f85780636610ce911461067357806366fce2e61461019657806368c4ac2614610634578063715018a6146105d75780637be7bb2e146105b95780638da5cb5b146105905780638e00555314610520578063a42dce80146104a8578063a6175b0c14610305578063ad991c15146101e8578063b45edf47146101c3578063c415b95c1461019b578063ed8d6c8f146101965763f2fde38b1461010857600080fd5b34610191576020366003190112610191576101216112ec565b6101296113f6565b6001600160a01b039081169182156101795750600154826001600160601b0360a01b821617600155167f8be0079c531659141344cd1fd0a4f28419497f9722a3daafe3b4186f6b6457e0600080a3005b602490600060405191631e4fbdf760e01b8352820152fd5b600080fd5b611302565b503461019157600036600319011261019157546040516001600160a01b039091168152602090f35b50346101915760003660031901126101915761ffff6020915460a01c16604051908152f35b5034610191576020366003190112610191578035610204611422565b80600052600260205260406000206008810154156102f457600781019081549160ff8316858110156102df576102ce5760058201544211156102bd5760018060a01b039283835416958633036102ae5750917f04f52f70a574c3facc8188d13efa4536b1ab3b9571e5ed36201886191c4686ce9391600260209460ff191617905561029c8260028301541660038301978854916114a0565b54169354604051908152a36001600055005b604051631cb2f8fb60e01b8152fd5b604051631d703d0f60e21b81528590fd5b6040516308a54a0960e01b81528590fd5b602186634e487b7160e01b6000525260246000fd5b604051634937821160e01b81528390fd5b50346101915760403660031901126101915780359067ffffffffffffffff906024358281116101915736602382011215610191578082013592831161019157366024848301011161019157610358611422565b8360005260026020526040600020926008840154156102f457600784019182549160ff8316858110156102df5761049757600586015442116104865760ff600987015460081c1661043a575b505060018401546001600160a01b0393908416801515908161042f575b50610420575060ff191660011790556002820154600392909201805490926103eb923391166114a0565b54906040519182527f54e6888b93343929fb4c04c33f95a6f9df6993d77d70520adece23bf63fbd9bb60203393a36001600055005b60405163cb7824e960e01b8152fd5b9050331415386103c1565b61046160206040518381946024848401970187378101600083820152038084520182611370565b5190206006850154036104755738806103a4565b60405163218141ab60e21b81528390fd5b60405163f765373160e01b81528590fd5b60405163238d67bf60e21b81528590fd5b5034610191576020366003190112610191576104c26112ec565b6104ca6113f6565b6001600160a01b03169081156105115780546001600160a01b031916821790557fe5693914d19c789bdee50a362998c0bc8d035a835f9871da5d51152f0582c34f600080a2005b604051635fb3e86760e11b8152fd5b503461019157602036600319011261019157803561ffff8116808203610191577fc8fcf8ee1425e7e60b8af83735e1eb516d5b9ef05bfd6eece552ebaeb7c75b489260209261056d6113f6565b815461ffff60a01b191660a09190911b61ffff60a01b16179055604051908152a1005b34610191576000366003190112610191576001546040516001600160a01b039091168152602090f35b3461019157600036600319011261019157602060405162278d008152f35b34610191576000366003190112610191576105f06113f6565b600180546001600160a01b031981169091556000906001600160a01b03167f8be0079c531659141344cd1fd0a4f28419497f9722a3daafe3b4186f6b6457e08280a3005b34610191576020366003190112610191576001600160a01b036106556112ec565b166000526003602052602060ff604060002054166040519015158152f35b5034610191576020366003190112610191578035600052600260205260406000206008810154151590816106c6575b60209250816106b7575b506040519015158152f35b600591500154421115386106ac565b905060ff600782015416828110156106e3576020925015906106a2565b602183634e487b7160e01b6000525260246000fd5b50346101915760a0366003190112610191576107126112ec565b906024356044359160643580151581036101915760843591610732611422565b6001600160a01b03861694808615610ae2578515610ad15786600052600360205260ff6040600020541615610ac0578380610ab8575b6104755780610a7c575050620151804201804211610a6757915b8015610a6057835b6000194301438111610a4b576040519060208201923360601b84526001600160601b03198b60601b16603484015288604884015286606884015260888301524260a88301524060c88201523060601b60e882015260dc81526107eb81611353565b51902095866000526002602052600860406000200154610a3b57600091869561ffff855460a01c1680610a16575b508115610a0d57905b6040519161082f83611320565b338352600060208401528360408401528760608401528860808401528660a084015260c0830152600060e083015242610100830152600161012083015261014082019015158152886000526002602052604060002060018060a01b038351166001600160601b0360a01b90818354161782556001820160018060a01b0360208601511682825416179055600282019060018060a01b03604086015116908254161790556060830151600382015560808301518682015560a0830151600582015560c0830151600682015560e0830151868110156109f8579460209b98946109c9948c9994610972610120600960009f9b9761094f7fed93da789387b889dbb469e12e0518ddf6c6145468a3154ce1e479eedf2fc2d49e99600783016113c8565b6101008601516008820155019301511515839060ff801983541691151516179055565b51815461ff00191690151560081b61ff001617905561099387303384611445565b816109d9575b50505060405193849333988590949392606092608083019660018060a01b03168352602083015260408201520152565b0390a46001600055604051908152f35b91546109f0926001600160a01b03909116906114a0565b388080610999565b602187634e487b7160e01b6000525260246000fd5b50600090610822565b610a2891975061271092945088611392565b0491610a3483886113bb565b9538610819565b604051626995d560e31b81528390fd5b601184634e487b7160e01b6000525260246000fd5b600061078a565b601182634e487b7160e01b6000525260246000fd5b92909242811190811591610aa1575b501561078257506040516398e71feb60e01b8152fd5b905062278d00420190814211610a4b571138610a8b565b508415610768565b604051633dd1b30560e01b81528390fd5b60405163162908e360e11b81528390fd5b604051630f58058360e11b81528390fd5b5034610191576020366003190112610191578035600052600260205260406000209060018060a01b0391828154169183600183015416936002830154169060038301548184015460058501549060068601549260ff600788015416956009600889015498015499604051998a5260208a015260408901526060880152608087015260a086015260c085015280821015610bb357509260ff916101609460e0850152610100840152818116151561012084015260081c161515610140820152f35b602190634e487b7160e01b6000525260246000fd5b50346101915760203660031901126101915780356000526002602052604060002090600882015415610c1d57600982015460081c60ff1615610c1457602060015b60ff60405191168152f35b60206000610c09565b604051634937821160e01b8152fd5b503461019157602036600319011261019157803560005260026020526040600020600881015480156102f45760018060a01b0392838354169284600182015416946002820154166003820154838301549160058401549360ff6007820154169580871015610bb357509161014098959391600960ff989694015496604051998a5260208a015260408901526060880152608087015260a086015260c085015260e0840152818116151561010084015260081c161515610120820152f35b50346101915760c036600319011261019157610d036112ec565b9060249081356001600160a01b0381168082036101915760443594606435936084359586151587036101915760a43593610d3b611422565b86811561118c57891561117b5781600052600360205260ff604060002054161561116a576001600160a01b038516978815611159578980611151575b61114057806110ef5750506201518042018042116110db57935b60001943014381116110c7576040519060208201923360601b84526001600160601b0319809160601b1660348401528960601b1660488301528b605c83015286607c83015287609c8301524260bc8301524060dc82015260dc8152610df581611353565b519020978860005260026020526008604060002001546110b7576000908a9661ffff865460a01c1680611092575b50811561108957905b60405191610e3983611320565b3383528a60208401528460408401528860608401528c60808401528760a084015260c0830152600060e08301524261010083015260006101208301521515610140820152896000526002602052604060002060018060a01b038251166001600160601b0360a01b90818354161782556001820160018060a01b0360208501511682825416179055600282019060018060a01b03604085015116908254161790556060820151600382015560808201518682015560a0820151600582015560c0820151600682015560e0820151868110156110755781610f20600992600761014095016113c8565b61010084015160088201550191610f4a6101208201511515849060ff801983541691151516179055565b0151815461ff00191690151560081b61ff0016179055610f6c8a303385611445565b80611057575b5050856000526005602052604060002090815492680100000000000000008410156110445760018401808455841015611031575050926109c97fed93da789387b889dbb469e12e0518ddf6c6145468a3154ce1e479eedf2fc2d4938860209a9481976000528b600020015587867f3da0248f11f36fd9d6e24e184864665e57903fbbb7201c3ad769e40e1b21b471600080a360405193849333988590949392606092608083019660018060a01b03168352602083015260408201520152565b603290634e487b7160e01b600052526000fd5b604190634e487b7160e01b600052526000fd5b835461106e926001600160a01b03909116906114a0565b3880610f72565b85602188634e487b7160e01b600052526000fd5b50600090610e2c565b6110a49198506127109293508c611392565b04906110b0828c6113bb565b9638610e23565b604051626995d560e31b81528490fd5b83601186634e487b7160e01b600052526000fd5b82601185634e487b7160e01b600052526000fd5b94909442811190811591611115575b5015610d91576040516398e71feb60e01b81528490fd5b905062278d0042019081421161112c5711386110fe565b84601187634e487b7160e01b600052526000fd5b60405163218141ab60e21b81528590fd5b508615610d77565b604051630f58058360e11b81528590fd5b604051633dd1b30560e01b81528490fd5b60405163162908e360e11b81528490fd5b604051630f58058360e11b81528490fd5b5034610191576040366003190112610191576111b76112ec565b60243580151591828203610191576111cd6113f6565b6001600160a01b031692831561122d57507fbbe72b7d9dcb594ee398a4a617885aba53d833e2aad601c813ce9df99fdeb49b91611224602092856000526003845260406000209060ff801983541691151516179055565b604051908152a2005b604051630f58058360e11b8152fd5b346101915760209081600319360112610191576001600160a01b0361125f6112ec565b166000526005825260406000208054808352838301908192600052846000209060005b868282106112d857868661129882880383611370565b604051928392818401908285525180915260408401929160005b8281106112c157505050500390f35b8351855286955093810193928101926001016112b2565b835485529093019260019283019201611282565b600435906001600160a01b038216820361019157565b34610191576000366003190112610191576020604051620151808152f35b610160810190811067ffffffffffffffff82111761133d57604052565b634e487b7160e01b600052604160045260246000fd5b610100810190811067ffffffffffffffff82111761133d57604052565b90601f8019910116810190811067ffffffffffffffff82111761133d57604052565b818102929181159184041417156113a557565b634e487b7160e01b600052601160045260246000fd5b919082039182116113a557565b9060048110156113e05760ff80198354169116179055565b634e487b7160e01b600052602160045260246000fd5b6001546001600160a01b0316330361140a57565b60405163118cdaa760e01b8152336004820152602490fd5b600260005414611433576002600055565b604051633ee5aeb560e01b8152600490fd5b6040516323b872dd60e01b60208201526001600160a01b03928316602482015292909116604483015260648083019390935291815260a081019181831067ffffffffffffffff84111761133d5761149e926040526114ec565b565b60405163a9059cbb60e01b60208201526001600160a01b039092166024830152604480830193909352918152608081019167ffffffffffffffff83118284101761133d5761149e926040525b906000602091828151910182855af115611548576000513d61153f57506001600160a01b0381163b155b61151d5750565b604051635274afe760e01b81526001600160a01b039091166004820152602490fd5b60011415611516565b6040513d6000823e3d90fdfea2646970667358221220e4f87c2e596bbea5bf8fc171663c81bb92e4f21ba37b129f40f1250b53489ea664736f6c63430008180033",
  "linkReferences": {},
  "deployedLinkReferences": {}
}