{
  "_format": "hh-sol-artifact-1",
  "contractName": "StraptDrop",
  "sourceName": "contracts/StraptDrop.sol",
  "abi": [
    {
      "inputs": [],
      "stateMutability": "nonpayable",
      "type": "constructor"
    },
    {
      "inputs": [],
      "name": "AllClaimsTaken",
      "type": "error"
    },
    {
      "inputs": [],
      "name": "AlreadyClaimed",
      "type": "error"
    },
    {
      "inputs": [],
      "name": "DropExpired",
      "type": "error"
    },
    {
      "inputs": [],
      "name": "DropNotActive",
      "type": "error"
    },
    {
      "inputs": [],
      "name": "DropNotFound",
      "type": "error"
    },
    {
      "inputs": [],
      "name": "InvalidAddress",
      "type": "error"
    },
    {
      "inputs": [],
      "name": "InvalidAmount",
      "type": "error"
    },
    {
      "inputs": [],
      "name": "InvalidExpiryTime",
      "type": "error"
    },
    {
      "inputs": [],
      "name": "InvalidFeePercentage",
      "type": "error"
    },
    {
      "inputs": [],
      "name": "InvalidRecipients",
      "type": "error"
    },
    {
      "inputs": [],
      "name": "NotCreator",
      "type": "error"
    },
    {
      "inputs": [],
      "name": "NotExpiredYet",
      "type": "error"
    },
    {
      "inputs": [
        {
          "internalType": "address",
          "name": "owner",
          "type": "address"
        }
      ],
      "name": "OwnableInvalidOwner",
      "type": "error"
    },
    {
      "inputs": [
        {
          "internalType": "address",
          "name": "account",
          "type": "address"
        }
      ],
      "name": "OwnableUnauthorizedAccount",
      "type": "error"
    },
    {
      "inputs": [],
      "name": "ReentrancyGuardReentrantCall",
      "type": "error"
    },
    {
      "inputs": [
        {
          "internalType": "address",
          "name": "token",
          "type": "address"
        }
      ],
      "name": "SafeERC20FailedOperation",
      "type": "error"
    },
    {
      "inputs": [],
      "name": "TransferFailed",
      "type": "error"
    },
    {
      "anonymous": false,
      "inputs": [
        {
          "indexed": true,
          "internalType": "bytes32",
          "name": "dropId",
          "type": "bytes32"
        },
        {
          "indexed": true,
          "internalType": "address",
          "name": "recipient",
          "type": "address"
        },
        {
          "indexed": false,
          "internalType": "uint256",
          "name": "amount",
          "type": "uint256"
        }
      ],
      "name": "DropClaimed",
      "type": "event"
    },
    {
      "anonymous": false,
      "inputs": [
        {
          "indexed": true,
          "internalType": "bytes32",
          "name": "dropId",
          "type": "bytes32"
        },
        {
          "indexed": true,
          "internalType": "address",
          "name": "creator",
          "type": "address"
        },
        {
          "indexed": true,
          "internalType": "address",
          "name": "tokenAddress",
          "type": "address"
        },
        {
          "indexed": false,
          "internalType": "uint256",
          "name": "totalAmount",
          "type": "uint256"
        },
        {
          "indexed": false,
          "internalType": "uint256",
          "name": "totalRecipients",
          "type": "uint256"
        },
        {
          "indexed": false,
          "internalType": "bool",
          "name": "isRandom",
          "type": "bool"
        },
        {
          "indexed": false,
          "internalType": "string",
          "name": "message",
          "type": "string"
        }
      ],
      "name": "DropCreated",
      "type": "event"
    },
    {
      "anonymous": false,
      "inputs": [
        {
          "indexed": true,
          "internalType": "bytes32",
          "name": "dropId",
          "type": "bytes32"
        },
        {
          "indexed": true,
          "internalType": "address",
          "name": "creator",
          "type": "address"
        },
        {
          "indexed": false,
          "internalType": "uint256",
          "name": "remainingAmount",
          "type": "uint256"
        }
      ],
      "name": "DropsExpired",
      "type": "event"
    },
    {
      "anonymous": false,
      "inputs": [
        {
          "indexed": true,
          "internalType": "bytes32",
          "name": "dropId",
          "type": "bytes32"
        },
        {
          "indexed": true,
          "internalType": "address",
          "name": "tokenAddress",
          "type": "address"
        },
        {
          "indexed": false,
          "internalType": "uint256",
          "name": "feeAmount",
          "type": "uint256"
        }
      ],
      "name": "FeeCollected",
      "type": "event"
    },
    {
      "anonymous": false,
      "inputs": [
        {
          "indexed": false,
          "internalType": "address",
          "name": "oldCollector",
          "type": "address"
        },
        {
          "indexed": false,
          "internalType": "address",
          "name": "newCollector",
          "type": "address"
        }
      ],
      "name": "FeeCollectorUpdated",
      "type": "event"
    },
    {
      "anonymous": false,
      "inputs": [
        {
          "indexed": false,
          "internalType": "uint256",
          "name": "oldPercentage",
          "type": "uint256"
        },
        {
          "indexed": false,
          "internalType": "uint256",
          "name": "newPercentage",
          "type": "uint256"
        }
      ],
      "name": "FeePercentageUpdated",
      "type": "event"
    },
    {
      "anonymous": false,
      "inputs": [
        {
          "indexed": true,
          "internalType": "address",
          "name": "previousOwner",
          "type": "address"
        },
        {
          "indexed": true,
          "internalType": "address",
          "name": "newOwner",
          "type": "address"
        }
      ],
      "name": "OwnershipTransferred",
      "type": "event"
    },
    {
      "inputs": [
        {
          "internalType": "bytes32",
          "name": "dropId",
          "type": "bytes32"
        }
      ],
      "name": "claimDrop",
      "outputs": [
        {
          "internalType": "uint256",
          "name": "",
          "type": "uint256"
        }
      ],
      "stateMutability": "nonpayable",
      "type": "function"
    },
    {
      "inputs": [
        {
          "internalType": "bytes32",
          "name": "",
          "type": "bytes32"
        },
        {
          "internalType": "address",
          "name": "",
          "type": "address"
        }
      ],
      "name": "claimedAmounts",
      "outputs": [
        {
          "internalType": "uint256",
          "name": "",
          "type": "uint256"
        }
      ],
      "stateMutability": "view",
      "type": "function"
    },
    {
      "inputs": [
        {
          "internalType": "address",
          "name": "tokenAddress",
          "type": "address"
        },
        {
          "internalType": "uint256",
          "name": "totalAmount",
          "type": "uint256"
        },
        {
          "internalType": "uint256",
          "name": "totalRecipients",
          "type": "uint256"
        },
        {
          "internalType": "bool",
          "name": "isRandom",
          "type": "bool"
        },
        {
          "internalType": "uint256",
          "name": "expiryTime",
          "type": "uint256"
        },
        {
          "internalType": "string",
          "name": "message",
          "type": "string"
        }
      ],
      "name": "createDrop",
      "outputs": [
        {
          "internalType": "bytes32",
          "name": "",
          "type": "bytes32"
        }
      ],
      "stateMutability": "nonpayable",
      "type": "function"
    },
    {
      "inputs": [
        {
          "internalType": "bytes32",
          "name": "",
          "type": "bytes32"
        }
      ],
      "name": "drops",
      "outputs": [
        {
          "internalType": "address",
          "name": "creator",
          "type": "address"
        },
        {
          "internalType": "address",
          "name": "tokenAddress",
          "type": "address"
        },
        {
          "internalType": "uint256",
          "name": "totalAmount",
          "type": "uint256"
        },
        {
          "internalType": "uint256",
          "name": "remainingAmount",
          "type": "uint256"
        },
        {
          "internalType": "uint256",
          "name": "claimedCount",
          "type": "uint256"
        },
        {
          "internalType": "uint256",
          "name": "totalRecipients",
          "type": "uint256"
        },
        {
          "internalType": "uint256",
          "name": "amountPerRecipient",
          "type": "uint256"
        },
        {
          "internalType": "bool",
          "name": "isRandom",
          "type": "bool"
        },
        {
          "internalType": "uint256",
          "name": "expiryTime",
          "type": "uint256"
        },
        {
          "internalType": "string",
          "name": "message",
          "type": "string"
        },
        {
          "internalType": "bool",
          "name": "isActive",
          "type": "bool"
        }
      ],
      "stateMutability": "view",
      "type": "function"
    },
    {
      "inputs": [],
      "name": "feeCollector",
      "outputs": [
        {
          "internalType": "address",
          "name": "",
          "type": "address"
        }
      ],
      "stateMutability": "view",
      "type": "function"
    },
    {
      "inputs": [],
      "name": "feePercentage",
      "outputs": [
        {
          "internalType": "uint256",
          "name": "",
          "type": "uint256"
        }
      ],
      "stateMutability": "view",
      "type": "function"
    },
    {
      "inputs": [
        {
          "internalType": "bytes32",
          "name": "dropId",
          "type": "bytes32"
        },
        {
          "internalType": "address",
          "name": "user",
          "type": "address"
        }
      ],
      "name": "getClaimedAmount",
      "outputs": [
        {
          "internalType": "uint256",
          "name": "amount",
          "type": "uint256"
        }
      ],
      "stateMutability": "view",
      "type": "function"
    },
    {
      "inputs": [
        {
          "internalType": "bytes32",
          "name": "dropId",
          "type": "bytes32"
        }
      ],
      "name": "getDropInfo",
      "outputs": [
        {
          "internalType": "address",
          "name": "creator",
          "type": "address"
        },
        {
          "internalType": "address",
          "name": "tokenAddress",
          "type": "address"
        },
        {
          "internalType": "uint256",
          "name": "totalAmount",
          "type": "uint256"
        },
        {
          "internalType": "uint256",
          "name": "remainingAmount",
          "type": "uint256"
        },
        {
          "internalType": "uint256",
          "name": "claimedCount",
          "type": "uint256"
        },
        {
          "internalType": "uint256",
          "name": "totalRecipients",
          "type": "uint256"
        },
        {
          "internalType": "bool",
          "name": "isRandom",
          "type": "bool"
        },
        {
          "internalType": "uint256",
          "name": "expiryTime",
          "type": "uint256"
        },
        {
          "internalType": "string",
          "name": "message",
          "type": "string"
        },
        {
          "internalType": "bool",
          "name": "isActive",
          "type": "bool"
        }
      ],
      "stateMutability": "view",
      "type": "function"
    },
    {
      "inputs": [
        {
          "internalType": "bytes32",
          "name": "dropId",
          "type": "bytes32"
        },
        {
          "internalType": "address",
          "name": "user",
          "type": "address"
        }
      ],
      "name": "hasAddressClaimed",
      "outputs": [
        {
          "internalType": "bool",
          "name": "claimed",
          "type": "bool"
        }
      ],
      "stateMutability": "view",
      "type": "function"
    },
    {
      "inputs": [
        {
          "internalType": "bytes32",
          "name": "",
          "type": "bytes32"
        },
        {
          "internalType": "address",
          "name": "",
          "type": "address"
        }
      ],
      "name": "hasClaimed",
      "outputs": [
        {
          "internalType": "bool",
          "name": "",
          "type": "bool"
        }
      ],
      "stateMutability": "view",
      "type": "function"
    },
    {
      "inputs": [],
      "name": "owner",
      "outputs": [
        {
          "internalType": "address",
          "name": "",
          "type": "address"
        }
      ],
      "stateMutability": "view",
      "type": "function"
    },
    {
      "inputs": [
        {
          "internalType": "bytes32",
          "name": "dropId",
          "type": "bytes32"
        }
      ],
      "name": "refundExpiredDrop",
      "outputs": [
        {
          "internalType": "uint256",
          "name": "",
          "type": "uint256"
        }
      ],
      "stateMutability": "nonpayable",
      "type": "function"
    },
    {
      "inputs": [],
      "name": "renounceOwnership",
      "outputs": [],
      "stateMutability": "nonpayable",
      "type": "function"
    },
    {
      "inputs": [
        {
          "internalType": "address",
          "name": "_feeCollector",
          "type": "address"
        }
      ],
      "name": "setFeeCollector",
      "outputs": [],
      "stateMutability": "nonpayable",
      "type": "function"
    },
    {
      "inputs": [
        {
          "internalType": "uint256",
          "name": "_feePercentage",
          "type": "uint256"
        }
      ],
      "name": "setFeePercentage",
      "outputs": [],
      "stateMutability": "nonpayable",
      "type": "function"
    },
    {
      "inputs": [
        {
          "internalType": "address",
          "name": "newOwner",
          "type": "address"
        }
      ],
      "name": "transferOwnership",
      "outputs": [],
      "stateMutability": "nonpayable",
      "type": "function"
    }
  ],
  "bytecode": "0x6080806040523461008f57600160005533156100795760018054336001600160a01b0319808316821790935560405192916001600160a01b03167f8be0079c531659141344cd1fd0a4f28419497f9722a3daafe3b4186f6b6457e0600080a3600a6002553390600354161760035561120490816100958239f35b631e4fbdf760e01b815260006004820152602490fd5b600080fdfe6080604052600436101561001257600080fd5b60003560e01c806335c1fdcd14610e1757806349af200114610d4e5780636ece859814610ad5578063715018a614610a785780638da5cb5b14610a4f57806392a42d1d14610a02578063a001ecdd146109e4578063a42dce8014610969578063a826ae7a14610907578063adc8420914610378578063ae06c1b714610309578063c415b95c146102e0578063e9f47cd414610279578063ecc4e2c0146101a2578063f2fde38b146101195763fb1b8fac146100cc57600080fd5b34610114576040366003190112610114576100e561105b565b600435600052600660205260406000209060018060a01b03166000526020526020604060002054604051908152f35b600080fd5b3461011457602036600319011261011457610132611071565b61013a61113a565b6001600160a01b0390811690811561018957600154826001600160601b0360a01b821617600155167f8be0079c531659141344cd1fd0a4f28419497f9722a3daafe3b4186f6b6457e0600080a3005b604051631e4fbdf760e01b815260006004820152602490fd5b34610114576020366003190112610114576004356000526004602052604060002060018060a01b039081815416918215610267576001820154169061025a6002820154936003830154906004840154600585015460ff60078701541690600887015492610219600960ff600a8b0154169901610f76565b956040519a8b9a610140978c5260208c015260408b015260608a0152608089015260a0880152151560c087015260e08601528061010086015284019061101b565b9015156101208301520390f35b60405163c9062f8d60e01b8152600490fd5b346101145760403660031901126101145760043561029561105b565b60008281526004602052604090205490916001600160a01b039182161561026757600052600560205260406000209116600052602052602060ff604060002054166040519015158152f35b34610114576000366003190112610114576003546040516001600160a01b039091168152602090f35b346101145760203660031901126101145760043561032561113a565b603281116103665760407fb27c12a91635e11c22bffa7bd8e0a8735da52b94aaefd7f249776c7590ba789491600254908060025582519182526020820152a1005b60405163390edff560e11b8152600490fd5b346101145760c036600319011261011457610391611071565b6064351515606435036101145760a43567ffffffffffffffff811161011457366023820112156101145767ffffffffffffffff81600401351161011457366024826004013583010111610114576103e66110c7565b602435156108f557604435156108e3574260843511156108d1576001600160a01b038216156108bf57606461041f600254602435611094565b0461042c81602435611087565b906104706040516323b872dd60e01b602082015233602482015230604482015260243560648201526064815261046181610f38565b6001600160a01b038616611166565b80610863575b5060405160208101903360601b8252426034820152602435605482015260443560748201526001600160601b03198560601b1660948201526088815260c0810181811067ffffffffffffffff82111761083c5760405251902091606435156108525760005b604051908161016081011067ffffffffffffffff6101608401111761083c57610160820160405233825260018060a01b03861660208301528360408301528360608301526000608083015260443560a083015260c0820152606435151560e08201526084356101008201526040516105616020601f19601f866004013501160182610f54565b600483013580825260248401602083013760006020846004013583010152610120820152600161014082015283600052600460205260406000209060018060a01b038151166001600160601b0360a01b9081845416178355600183019060018060a01b036020840151169082541617905560408101516002830155606081015160038301556080810151600483015560a0810151600583015560c0810151600683015561062360e08201511515600784019060ff801983541691151516179055565b610100810151600883015561012081015180519067ffffffffffffffff821161083c576106536009850154610efe565b601f81116107f5575b5091869391602098938990601f8311600114610753576106d993837f7d86510072797a506e02214637fbdcbacada509dc8f6f4bd96501f5a9845bcd2979694600a9461014094600092610748575b50508160011b916000199060031b1c19161760098501555b0151151591019060ff801983541691151516179055565b6040519485526044358786015260643515156040860152608060608601528360040135608086015283600401356024850160a0870137600060a085600401358701015260018060a01b03169360a0813395601f8019916004013501168101030190a46001600055604051908152f35b015190508e806106aa565b959493929190600984016000528a6000209660005b601f19841681106107db5750926001837f7d86510072797a506e02214637fbdcbacada509dc8f6f4bd96501f5a9845bcd29899610140946106d99897600a97601f198116106107c2575b505050811b0160098501556106c2565b015160001960f88460031b161c191690558e80806107b2565b8282015189556001909801978b9750918c01918c01610768565b600985016000526020600020601f840160051c810160208510610835575b601f830160051c8201811061082957505061065c565b60008155600101610813565b5080610813565b634e487b7160e01b600052604160045260246000fd5b61085e604435836110a7565b6104db565b60035461087f9082906001600160a01b039081169087166110ea565b6040519081526001600160a01b038416906000907f5899c71e3fe835a574423906759f5d29719430494c095837bff7e180adac2a4c90602090a383610476565b60405163e6c4247b60e01b8152600490fd5b6040516398e71feb60e01b8152600490fd5b604051635d5eb16d60e11b8152600490fd5b60405163162908e360e11b8152600490fd5b346101145760403660031901126101145760043561092361105b565b60008281526004602052604090205490916001600160a01b0391821615610267576000526006602052604060002091166000526020526020604060002054604051908152f35b3461011457602036600319011261011457610982611071565b61098a61113a565b6001600160a01b0390811680156108bf577f5d16ad41baeb009cd23eb8f6c7cde5c2e0cd5acf4a33926ab488875c37c37f389160409160035491816001600160601b0360a01b8416176003558351921682526020820152a1005b34610114576000366003190112610114576020600254604051908152f35b3461011457604036600319011261011457610a1b61105b565b600435600052600560205260406000209060018060a01b0316600052602052602060ff604060002054166040519015158152f35b34610114576000366003190112610114576001546040516001600160a01b039091168152602090f35b3461011457600036600319011261011457610a9161113a565b600180546001600160a01b031981169091556000906001600160a01b03167f8be0079c531659141344cd1fd0a4f28419497f9722a3daafe3b4186f6b6457e08280a3005b346101145760208060031936011261011457600435610af26110c7565b806000526004825260406000209060018060a01b03808354161561026757600a83019060ff82541615610d3c576008840154421015610d2a5760048401938454916005820193845480851015610d18578660005260058952604060002033600052895260ff60406000205416610d0657600784015460ff1615610cfa576000198101818111610c4d5785908103610c6357505060038301545b965b60038401610b9c898254611087565b905560018501809511610c4d57610c0895889582558760005260058a526040600020336000528a5260406000209160ff19926001848254161790558860005260068b526040600020336000528b528660406000205554905414610c41575b5050600133920154166110ea565b604051908282527f2008dfeaa3ac06a5972f12bf8d71e3938cdf0be1b0bb39bfb572e67b233121ef843393a36001600055604051908152f35b81541690558780610bfa565b634e487b7160e01b600052601160045260246000fd5b610c6c91611087565b610c7b600385015491826110a7565b908160011b82810460021483151715610c4d5781808210911802189060646040518b8101904282523360601b60408201528a605482015288607482015260748152610cc581610f38565b519020069060648201809211610c4d57606491610ce191611094565b0481808210911802186001808211911802600118610b8b565b50600683015496610b8d565b604051630c8d9eab60e31b8152600490fd5b604051632022549f60e01b8152600490fd5b60405163b1efd33560e01b8152600490fd5b604051635234413f60e11b8152600490fd5b34610114576020366003190112610114576004356000526004602052604060002060018060a01b03808254169060018301541690610e0a60028401549360038101549260048201546005830154600684015460ff6007860154169160088601549360ff600a610dbf60098a01610f76565b98015416986040519b8c9b610160988d5260208d015260408c015260608b015260808a015260a089015260c0880152151560e08701526101008601528061012086015284019061101b565b9015156101408301520390f35b3461011457602036600319011261011457600435610e336110c7565b6000818152600460205260409020805490916001600160a01b0391821691821561026757600a84019384549460ff861615610d3c5760088201544210610eec57338503610eda57602095600095610ea192600385019283549889945560ff19169055846001850154166110ea565b5416907f201fe20932a707c1fc233e36c49b5947fdc43912e8efdca3e5723db1a1d3d7dd84604051858152a36001600055604051908152f35b6040516393687c0b60e01b8152600490fd5b60405163a8058ea960e01b8152600490fd5b90600182811c92168015610f2e575b6020831014610f1857565b634e487b7160e01b600052602260045260246000fd5b91607f1691610f0d565b60a0810190811067ffffffffffffffff82111761083c57604052565b90601f8019910116810190811067ffffffffffffffff82111761083c57604052565b90604051918260008254610f8981610efe565b90818452602094600191600181169081600014610ff95750600114610fba575b505050610fb892500383610f54565b565b600090815285812095935091905b818310610fe1575050610fb89350820101388080610fa9565b85548884018501529485019487945091830191610fc8565b92505050610fb894925060ff191682840152151560051b820101388080610fa9565b919082519283825260005b848110611047575050826000602080949584010152601f8019910116010190565b602081830181015184830182015201611026565b602435906001600160a01b038216820361011457565b600435906001600160a01b038216820361011457565b91908203918211610c4d57565b81810292918115918404141715610c4d57565b81156110b1570490565b634e487b7160e01b600052601260045260246000fd5b6002600054146110d8576002600055565b604051633ee5aeb560e01b8152600490fd5b60405163a9059cbb60e01b60208201526001600160a01b039092166024830152604480830193909352918152608081019167ffffffffffffffff83118284101761083c57610fb892604052611166565b6001546001600160a01b0316330361114e57565b60405163118cdaa760e01b8152336004820152602490fd5b906000602091828151910182855af1156111c2576000513d6111b957506001600160a01b0381163b155b6111975750565b604051635274afe760e01b81526001600160a01b039091166004820152602490fd5b60011415611190565b6040513d6000823e3d90fdfea264697066735822122055dba0c26b3cbf9a649bc91ea910769f6bc150c4b35b1e1e01373a04b93b82f664736f6c63430008180033",
  "linkReferences": {},
  "deployedLinkReferences": {}
}